{
  "_format": "hh-sol-artifact-1",
  "contractName": "Token",
  "sourceName": "contracts/Token.sol",
  "abi": [
    {
      "inputs": [],
      "stateMutability": "nonpayable",
      "type": "constructor"
    },
    {
      "inputs": [
        {
          "internalType": "address",
          "name": "account",
          "type": "address"
        }
      ],
      "name": "HashOf",
      "outputs": [
        {
          "internalType": "string",
          "name": "",
          "type": "string"
        }
      ],
      "stateMutability": "view",
      "type": "function"
    },
    {
      "inputs": [
        {
          "internalType": "address",
          "name": "account",
          "type": "address"
        }
      ],
      "name": "balanceOf",
      "outputs": [
        {
          "internalType": "uint256",
          "name": "",
          "type": "uint256"
        }
      ],
      "stateMutability": "view",
      "type": "function"
    },
    {
      "inputs": [],
      "name": "name",
      "outputs": [
        {
          "internalType": "string",
          "name": "",
          "type": "string"
        }
      ],
      "stateMutability": "view",
      "type": "function"
    },
    {
      "inputs": [],
      "name": "owner",
      "outputs": [
        {
          "internalType": "address",
          "name": "",
          "type": "address"
        }
      ],
      "stateMutability": "view",
      "type": "function"
    },
    {
      "inputs": [],
      "name": "symbol",
      "outputs": [
        {
          "internalType": "string",
          "name": "",
          "type": "string"
        }
      ],
      "stateMutability": "view",
      "type": "function"
    },
    {
      "inputs": [],
      "name": "totalSupply",
      "outputs": [
        {
          "internalType": "uint256",
          "name": "",
          "type": "uint256"
        }
      ],
      "stateMutability": "view",
      "type": "function"
    },
    {
      "inputs": [
        {
          "internalType": "address",
          "name": "to",
          "type": "address"
        },
        {
          "internalType": "uint256",
          "name": "amount",
          "type": "uint256"
        },
        {
          "internalType": "string",
          "name": "challengeHash",
          "type": "string"
        }
      ],
      "name": "transfer",
      "outputs": [],
      "stateMutability": "nonpayable",
      "type": "function"
    }
  ],
  "bytecode": "0x6080604052604051806060016040528060218152602001620016b760219139600090816200002e919062000398565b506040518060400160405280600481526020017f4d485443000000000000000000000000000000000000000000000000000000008152506001908162000075919062000398565b506305f5e0ff60025560006003553480156200009057600080fd5b50600254600560003373ffffffffffffffffffffffffffffffffffffffff1673ffffffffffffffffffffffffffffffffffffffff1681526020019081526020016000208190555033600460006101000a81548173ffffffffffffffffffffffffffffffffffffffff021916908373ffffffffffffffffffffffffffffffffffffffff1602179055506200047f565b600081519050919050565b7f4e487b7100000000000000000000000000000000000000000000000000000000600052604160045260246000fd5b7f4e487b7100000000000000000000000000000000000000000000000000000000600052602260045260246000fd5b60006002820490506001821680620001a057607f821691505b602082108103620001b657620001b562000158565b5b50919050565b60008190508160005260206000209050919050565b60006020601f8301049050919050565b600082821b905092915050565b600060088302620002207fffffffffffffffffffffffffffffffffffffffffffffffffffffffffffffffff82620001e1565b6200022c8683620001e1565b95508019841693508086168417925050509392505050565b6000819050919050565b6000819050919050565b600062000279620002736200026d8462000244565b6200024e565b62000244565b9050919050565b6000819050919050565b620002958362000258565b620002ad620002a48262000280565b848454620001ee565b825550505050565b600090565b620002c4620002b5565b620002d18184846200028a565b505050565b5b81811015620002f957620002ed600082620002ba565b600181019050620002d7565b5050565b601f82111562000348576200031281620001bc565b6200031d84620001d1565b810160208510156200032d578190505b620003456200033c85620001d1565b830182620002d6565b50505b505050565b600082821c905092915050565b60006200036d600019846008026200034d565b1980831691505092915050565b60006200038883836200035a565b9150826002028217905092915050565b620003a3826200011e565b67ffffffffffffffff811115620003bf57620003be62000129565b5b620003cb825462000187565b620003d8828285620002fd565b600060209050601f831160018114620004105760008415620003fb578287015190505b6200040785826200037a565b86555062000477565b601f1984166200042086620001bc565b60005b828110156200044a5784890151825560018201915060208501945060208101905062000423565b868310156200046a578489015162000466601f8916826200035a565b8355505b6001600288020188555050505b505050505050565b611228806200048f6000396000f3fe608060405234801561001057600080fd5b506004361061007d5760003560e01c806370a082311161005b57806370a08231146100da5780638da5cb5b1461010a57806395d89b4114610128578063d75345a0146101465761007d565b806306fdde031461008257806318160ddd146100a057806356b8c724146100be575b600080fd5b61008a610176565b6040516100979190610a69565b60405180910390f35b6100a8610204565b6040516100b59190610aa4565b60405180910390f35b6100d860048036038101906100d39190610c92565b61020a565b005b6100f460048036038101906100ef9190610d01565b6104c9565b6040516101019190610aa4565b60405180910390f35b610112610512565b60405161011f9190610d3d565b60405180910390f35b610130610538565b60405161013d9190610a69565b60405180910390f35b610160600480360381019061015b9190610d01565b6105c6565b60405161016d9190610a69565b60405180910390f35b6000805461018390610d87565b80601f01602080910402602001604051908101604052809291908181526020018280546101af90610d87565b80156101fc5780601f106101d1576101008083540402835291602001916101fc565b820191906000526020600020905b8154815290600101906020018083116101df57829003601f168201915b505050505081565b60025481565b81600560003373ffffffffffffffffffffffffffffffffffffffff1673ffffffffffffffffffffffffffffffffffffffff16815260200190815260200160002054101561028c576040517f08c379a000000000000000000000000000000000000000000000000000000000815260040161028390610e04565b60405180910390fd5b81600560003373ffffffffffffffffffffffffffffffffffffffff1673ffffffffffffffffffffffffffffffffffffffff16815260200190815260200160002060008282546102db9190610e53565b9250508190555081600560008573ffffffffffffffffffffffffffffffffffffffff1673ffffffffffffffffffffffffffffffffffffffff16815260200190815260200160002060008282546103319190610e87565b9250508190555080600660003373ffffffffffffffffffffffffffffffffffffffff1673ffffffffffffffffffffffffffffffffffffffff16815260200190815260200160002090816103849190611067565b506103c66040518060400160405280601381526020017f43757272656e742068617368206e756d626572000000000000000000000000008152506003546107dc565b6104af6040518060600160405280602281526020016111d160229139600660003373ffffffffffffffffffffffffffffffffffffffff1673ffffffffffffffffffffffffffffffffffffffff168152602001908152602001600020805461042c90610d87565b80601f016020809104026020016040519081016040528092919081815260200182805461045890610d87565b80156104a55780601f1061047a576101008083540402835291602001916104a5565b820191906000526020600020905b81548152906001019060200180831161048857829003601f168201915b5050505050610878565b60016003546104be9190610e87565b600381905550505050565b6000600560008373ffffffffffffffffffffffffffffffffffffffff1673ffffffffffffffffffffffffffffffffffffffff168152602001908152602001600020549050919050565b600460009054906101000a900473ffffffffffffffffffffffffffffffffffffffff1681565b6001805461054590610d87565b80601f016020809104026020016040519081016040528092919081815260200182805461057190610d87565b80156105be5780601f10610593576101008083540402835291602001916105be565b820191906000526020600020905b8154815290600101906020018083116105a157829003601f168201915b505050505081565b60606106076040518060400160405280600781526020017f68617368206f660000000000000000000000000000000000000000000000000081525083610914565b61070d6040518060400160405280601981526020017f53656e64657220746f6b656e4368616c6c656e67654861736800000000000000815250600660008573ffffffffffffffffffffffffffffffffffffffff1673ffffffffffffffffffffffffffffffffffffffff168152602001908152602001600020805461068a90610d87565b80601f01602080910402602001604051908101604052809291908181526020018280546106b690610d87565b80156107035780601f106106d857610100808354040283529160200191610703565b820191906000526020600020905b8154815290600101906020018083116106e657829003601f168201915b5050505050610878565b600660008373ffffffffffffffffffffffffffffffffffffffff1673ffffffffffffffffffffffffffffffffffffffff168152602001908152602001600020805461075790610d87565b80601f016020809104026020016040519081016040528092919081815260200182805461078390610d87565b80156107d05780601f106107a5576101008083540402835291602001916107d0565b820191906000526020600020905b8154815290600101906020018083116107b357829003601f168201915b50505050509050919050565b61087482826040516024016107f2929190611139565b6040516020818303038152906040527fb60e72cc000000000000000000000000000000000000000000000000000000007bffffffffffffffffffffffffffffffffffffffffffffffffffffffff19166020820180517bffffffffffffffffffffffffffffffffffffffffffffffffffffffff83818316178352505050506109b0565b5050565b610910828260405160240161088e929190611169565b6040516020818303038152906040527f4b5c4277000000000000000000000000000000000000000000000000000000007bffffffffffffffffffffffffffffffffffffffffffffffffffffffff19166020820180517bffffffffffffffffffffffffffffffffffffffffffffffffffffffff83818316178352505050506109b0565b5050565b6109ac828260405160240161092a9291906111a0565b6040516020818303038152906040527f319af333000000000000000000000000000000000000000000000000000000007bffffffffffffffffffffffffffffffffffffffffffffffffffffffff19166020820180517bffffffffffffffffffffffffffffffffffffffffffffffffffffffff83818316178352505050506109b0565b5050565b60008151905060006a636f6e736f6c652e6c6f679050602083016000808483855afa5050505050565b600081519050919050565b600082825260208201905092915050565b60005b83811015610a135780820151818401526020810190506109f8565b60008484015250505050565b6000601f19601f8301169050919050565b6000610a3b826109d9565b610a4581856109e4565b9350610a558185602086016109f5565b610a5e81610a1f565b840191505092915050565b60006020820190508181036000830152610a838184610a30565b905092915050565b6000819050919050565b610a9e81610a8b565b82525050565b6000602082019050610ab96000830184610a95565b92915050565b6000604051905090565b600080fd5b600080fd5b600073ffffffffffffffffffffffffffffffffffffffff82169050919050565b6000610afe82610ad3565b9050919050565b610b0e81610af3565b8114610b1957600080fd5b50565b600081359050610b2b81610b05565b92915050565b610b3a81610a8b565b8114610b4557600080fd5b50565b600081359050610b5781610b31565b92915050565b600080fd5b600080fd5b7f4e487b7100000000000000000000000000000000000000000000000000000000600052604160045260246000fd5b610b9f82610a1f565b810181811067ffffffffffffffff82111715610bbe57610bbd610b67565b5b80604052505050565b6000610bd1610abf565b9050610bdd8282610b96565b919050565b600067ffffffffffffffff821115610bfd57610bfc610b67565b5b610c0682610a1f565b9050602081019050919050565b82818337600083830152505050565b6000610c35610c3084610be2565b610bc7565b905082815260208101848484011115610c5157610c50610b62565b5b610c5c848285610c13565b509392505050565b600082601f830112610c7957610c78610b5d565b5b8135610c89848260208601610c22565b91505092915050565b600080600060608486031215610cab57610caa610ac9565b5b6000610cb986828701610b1c565b9350506020610cca86828701610b48565b925050604084013567ffffffffffffffff811115610ceb57610cea610ace565b5b610cf786828701610c64565b9150509250925092565b600060208284031215610d1757610d16610ac9565b5b6000610d2584828501610b1c565b91505092915050565b610d3781610af3565b82525050565b6000602082019050610d526000830184610d2e565b92915050565b7f4e487b7100000000000000000000000000000000000000000000000000000000600052602260045260246000fd5b60006002820490506001821680610d9f57607f821691505b602082108103610db257610db1610d58565b5b50919050565b7f4e6f7420456e6f75676820546f6b656e73000000000000000000000000000000600082015250565b6000610dee6011836109e4565b9150610df982610db8565b602082019050919050565b60006020820190508181036000830152610e1d81610de1565b9050919050565b7f4e487b7100000000000000000000000000000000000000000000000000000000600052601160045260246000fd5b6000610e5e82610a8b565b9150610e6983610a8b565b9250828203905081811115610e8157610e80610e24565b5b92915050565b6000610e9282610a8b565b9150610e9d83610a8b565b9250828201905080821115610eb557610eb4610e24565b5b92915050565b60008190508160005260206000209050919050565b60006020601f8301049050919050565b600082821b905092915050565b600060088302610f1d7fffffffffffffffffffffffffffffffffffffffffffffffffffffffffffffffff82610ee0565b610f278683610ee0565b95508019841693508086168417925050509392505050565b6000819050919050565b6000610f64610f5f610f5a84610a8b565b610f3f565b610a8b565b9050919050565b6000819050919050565b610f7e83610f49565b610f92610f8a82610f6b565b848454610eed565b825550505050565b600090565b610fa7610f9a565b610fb2818484610f75565b505050565b5b81811015610fd657610fcb600082610f9f565b600181019050610fb8565b5050565b601f82111561101b57610fec81610ebb565b610ff584610ed0565b81016020851015611004578190505b61101861101085610ed0565b830182610fb7565b50505b505050565b600082821c905092915050565b600061103e60001984600802611020565b1980831691505092915050565b6000611057838361102d565b9150826002028217905092915050565b611070826109d9565b67ffffffffffffffff81111561108957611088610b67565b5b6110938254610d87565b61109e828285610fda565b600060209050601f8311600181146110d157600084156110bf578287015190505b6110c9858261104b565b865550611131565b601f1984166110df86610ebb565b60005b82811015611107578489015182556001820191506020850194506020810190506110e2565b868310156111245784890151611120601f89168261102d565b8355505b6001600288020188555050505b505050505050565b600060408201905081810360008301526111538185610a30565b90506111626020830184610a95565b9392505050565b600060408201905081810360008301526111838185610a30565b905081810360208301526111978184610a30565b90509392505050565b600060408201905081810360008301526111ba8185610a30565b90506111c96020830184610d2e565b939250505056fe53656e64657220746f6b656e4368616c6c656e67654861736820706f736974696f6ea264697066735822122018e7f015f5be9dbf1d2721e385e9f9b1dfb5486ed137a6ff989ad314e6695ec364736f6c634300081100334d7920486172646861742041636365737320546f6b656e204368616c6c656e6765",
  "linkReferences": {},
  "deployedLinkReferences": {}
}