{
  "_format": "hh-sol-artifact-1",
  "contractName": "Token",
  "sourceName": "contracts/Token.sol",
  "abi": [
    {
      "inputs": [],
      "stateMutability": "nonpayable",
      "type": "constructor"
    },
    {
      "inputs": [
        {
          "internalType": "address",
          "name": "account",
          "type": "address"
        }
      ],
      "name": "HashOf",
      "outputs": [
        {
          "internalType": "string",
          "name": "",
          "type": "string"
        }
      ],
      "stateMutability": "view",
      "type": "function"
    },
    {
      "inputs": [
        {
          "internalType": "address",
          "name": "account",
          "type": "address"
        }
      ],
      "name": "balanceOf",
      "outputs": [
        {
          "internalType": "uint256",
          "name": "",
          "type": "uint256"
        }
      ],
      "stateMutability": "view",
      "type": "function"
    },
    {
      "inputs": [],
      "name": "name",
      "outputs": [
        {
          "internalType": "string",
          "name": "",
          "type": "string"
        }
      ],
      "stateMutability": "view",
      "type": "function"
    },
    {
      "inputs": [],
      "name": "owner",
      "outputs": [
        {
          "internalType": "address",
          "name": "",
          "type": "address"
        }
      ],
      "stateMutability": "view",
      "type": "function"
    },
    {
      "inputs": [],
      "name": "symbol",
      "outputs": [
        {
          "internalType": "string",
          "name": "",
          "type": "string"
        }
      ],
      "stateMutability": "view",
      "type": "function"
    },
    {
      "inputs": [],
      "name": "totalSupply",
      "outputs": [
        {
          "internalType": "uint256",
          "name": "",
          "type": "uint256"
        }
      ],
      "stateMutability": "view",
      "type": "function"
    },
    {
      "inputs": [
        {
          "internalType": "address",
          "name": "to",
          "type": "address"
        },
        {
          "internalType": "uint256",
          "name": "amount",
          "type": "uint256"
        },
        {
          "internalType": "string",
          "name": "challengeHash",
          "type": "string"
        }
      ],
      "name": "transfer",
      "outputs": [],
      "stateMutability": "nonpayable",
      "type": "function"
    }
  ],
  "bytecode": "0x60806040526040518060600160405280602181526020016200169a60219139600090816200002e919062000398565b506040518060400160405280600481526020017f4d485443000000000000000000000000000000000000000000000000000000008152506001908162000075919062000398565b506305f5e0ff60025560006003553480156200009057600080fd5b50600254600560003373ffffffffffffffffffffffffffffffffffffffff1673ffffffffffffffffffffffffffffffffffffffff1681526020019081526020016000208190555033600460006101000a81548173ffffffffffffffffffffffffffffffffffffffff021916908373ffffffffffffffffffffffffffffffffffffffff1602179055506200047f565b600081519050919050565b7f4e487b7100000000000000000000000000000000000000000000000000000000600052604160045260246000fd5b7f4e487b7100000000000000000000000000000000000000000000000000000000600052602260045260246000fd5b60006002820490506001821680620001a057607f821691505b602082108103620001b657620001b562000158565b5b50919050565b60008190508160005260206000209050919050565b60006020601f8301049050919050565b600082821b905092915050565b600060088302620002207fffffffffffffffffffffffffffffffffffffffffffffffffffffffffffffffff82620001e1565b6200022c8683620001e1565b95508019841693508086168417925050509392505050565b6000819050919050565b6000819050919050565b600062000279620002736200026d8462000244565b6200024e565b62000244565b9050919050565b6000819050919050565b620002958362000258565b620002ad620002a48262000280565b848454620001ee565b825550505050565b600090565b620002c4620002b5565b620002d18184846200028a565b505050565b5b81811015620002f957620002ed600082620002ba565b600181019050620002d7565b5050565b601f82111562000348576200031281620001bc565b6200031d84620001d1565b810160208510156200032d578190505b620003456200033c85620001d1565b830182620002d6565b50505b505050565b600082821c905092915050565b60006200036d600019846008026200034d565b1980831691505092915050565b60006200038883836200035a565b9150826002028217905092915050565b620003a3826200011e565b67ffffffffffffffff811115620003bf57620003be62000129565b5b620003cb825462000187565b620003d8828285620002fd565b600060209050601f831160018114620004105760008415620003fb578287015190505b6200040785826200037a565b86555062000477565b601f1984166200042086620001bc565b60005b828110156200044a5784890151825560018201915060208501945060208101905062000423565b868310156200046a578489015162000466601f8916826200035a565b8355505b6001600288020188555050505b505050505050565b61120b806200048f6000396000f3fe608060405234801561001057600080fd5b506004361061007d5760003560e01c806370a082311161005b57806370a08231146100da5780638da5cb5b1461010a57806395d89b4114610128578063d75345a0146101465761007d565b806306fdde031461008257806318160ddd146100a057806356b8c724146100be575b600080fd5b61008a610176565b6040516100979190610a4c565b60405180910390f35b6100a8610204565b6040516100b59190610a87565b60405180910390f35b6100d860048036038101906100d39190610c75565b61020a565b005b6100f460048036038101906100ef9190610ce4565b6104c9565b6040516101019190610a87565b60405180910390f35b610112610512565b60405161011f9190610d20565b60405180910390f35b610130610538565b60405161013d9190610a4c565b60405180910390f35b610160600480360381019061015b9190610ce4565b6105c6565b60405161016d9190610a4c565b60405180910390f35b6000805461018390610d6a565b80601f01602080910402602001604051908101604052809291908181526020018280546101af90610d6a565b80156101fc5780601f106101d1576101008083540402835291602001916101fc565b820191906000526020600020905b8154815290600101906020018083116101df57829003601f168201915b505050505081565b60025481565b81600560003373ffffffffffffffffffffffffffffffffffffffff1673ffffffffffffffffffffffffffffffffffffffff16815260200190815260200160002054101561028c576040517f08c379a000000000000000000000000000000000000000000000000000000000815260040161028390610de7565b60405180910390fd5b81600560003373ffffffffffffffffffffffffffffffffffffffff1673ffffffffffffffffffffffffffffffffffffffff16815260200190815260200160002060008282546102db9190610e36565b9250508190555081600560008573ffffffffffffffffffffffffffffffffffffffff1673ffffffffffffffffffffffffffffffffffffffff16815260200190815260200160002060008282546103319190610e6a565b9250508190555080600660003373ffffffffffffffffffffffffffffffffffffffff1673ffffffffffffffffffffffffffffffffffffffff1681526020019081526020016000209081610384919061104a565b506103c66040518060400160405280601381526020017f43757272656e742068617368206e756d626572000000000000000000000000008152506003546107bf565b6104af6040518060600160405280602281526020016111b460229139600660003373ffffffffffffffffffffffffffffffffffffffff1673ffffffffffffffffffffffffffffffffffffffff168152602001908152602001600020805461042c90610d6a565b80601f016020809104026020016040519081016040528092919081815260200182805461045890610d6a565b80156104a55780601f1061047a576101008083540402835291602001916104a5565b820191906000526020600020905b81548152906001019060200180831161048857829003601f168201915b505050505061085b565b60016003546104be9190610e6a565b600381905550505050565b6000600560008373ffffffffffffffffffffffffffffffffffffffff1673ffffffffffffffffffffffffffffffffffffffff168152602001908152602001600020549050919050565b600460009054906101000a900473ffffffffffffffffffffffffffffffffffffffff1681565b6001805461054590610d6a565b80601f016020809104026020016040519081016040528092919081815260200182805461057190610d6a565b80156105be5780601f10610593576101008083540402835291602001916105be565b820191906000526020600020905b8154815290600101906020018083116105a157829003601f168201915b505050505081565b60606106076040518060400160405280600781526020017f68617368206f6600000000000000000000000000000000000000000000000000815250836108f7565b6106f06040518060600160405280602281526020016111b460229139600660008573ffffffffffffffffffffffffffffffffffffffff1673ffffffffffffffffffffffffffffffffffffffff168152602001908152602001600020805461066d90610d6a565b80601f016020809104026020016040519081016040528092919081815260200182805461069990610d6a565b80156106e65780601f106106bb576101008083540402835291602001916106e6565b820191906000526020600020905b8154815290600101906020018083116106c957829003601f168201915b505050505061085b565b600660008373ffffffffffffffffffffffffffffffffffffffff1673ffffffffffffffffffffffffffffffffffffffff168152602001908152602001600020805461073a90610d6a565b80601f016020809104026020016040519081016040528092919081815260200182805461076690610d6a565b80156107b35780601f10610788576101008083540402835291602001916107b3565b820191906000526020600020905b81548152906001019060200180831161079657829003601f168201915b50505050509050919050565b61085782826040516024016107d592919061111c565b6040516020818303038152906040527fb60e72cc000000000000000000000000000000000000000000000000000000007bffffffffffffffffffffffffffffffffffffffffffffffffffffffff19166020820180517bffffffffffffffffffffffffffffffffffffffffffffffffffffffff8381831617835250505050610993565b5050565b6108f3828260405160240161087192919061114c565b6040516020818303038152906040527f4b5c4277000000000000000000000000000000000000000000000000000000007bffffffffffffffffffffffffffffffffffffffffffffffffffffffff19166020820180517bffffffffffffffffffffffffffffffffffffffffffffffffffffffff8381831617835250505050610993565b5050565b61098f828260405160240161090d929190611183565b6040516020818303038152906040527f319af333000000000000000000000000000000000000000000000000000000007bffffffffffffffffffffffffffffffffffffffffffffffffffffffff19166020820180517bffffffffffffffffffffffffffffffffffffffffffffffffffffffff8381831617835250505050610993565b5050565b60008151905060006a636f6e736f6c652e6c6f679050602083016000808483855afa5050505050565b600081519050919050565b600082825260208201905092915050565b60005b838110156109f65780820151818401526020810190506109db565b60008484015250505050565b6000601f19601f8301169050919050565b6000610a1e826109bc565b610a2881856109c7565b9350610a388185602086016109d8565b610a4181610a02565b840191505092915050565b60006020820190508181036000830152610a668184610a13565b905092915050565b6000819050919050565b610a8181610a6e565b82525050565b6000602082019050610a9c6000830184610a78565b92915050565b6000604051905090565b600080fd5b600080fd5b600073ffffffffffffffffffffffffffffffffffffffff82169050919050565b6000610ae182610ab6565b9050919050565b610af181610ad6565b8114610afc57600080fd5b50565b600081359050610b0e81610ae8565b92915050565b610b1d81610a6e565b8114610b2857600080fd5b50565b600081359050610b3a81610b14565b92915050565b600080fd5b600080fd5b7f4e487b7100000000000000000000000000000000000000000000000000000000600052604160045260246000fd5b610b8282610a02565b810181811067ffffffffffffffff82111715610ba157610ba0610b4a565b5b80604052505050565b6000610bb4610aa2565b9050610bc08282610b79565b919050565b600067ffffffffffffffff821115610be057610bdf610b4a565b5b610be982610a02565b9050602081019050919050565b82818337600083830152505050565b6000610c18610c1384610bc5565b610baa565b905082815260208101848484011115610c3457610c33610b45565b5b610c3f848285610bf6565b509392505050565b600082601f830112610c5c57610c5b610b40565b5b8135610c6c848260208601610c05565b91505092915050565b600080600060608486031215610c8e57610c8d610aac565b5b6000610c9c86828701610aff565b9350506020610cad86828701610b2b565b925050604084013567ffffffffffffffff811115610cce57610ccd610ab1565b5b610cda86828701610c47565b9150509250925092565b600060208284031215610cfa57610cf9610aac565b5b6000610d0884828501610aff565b91505092915050565b610d1a81610ad6565b82525050565b6000602082019050610d356000830184610d11565b92915050565b7f4e487b7100000000000000000000000000000000000000000000000000000000600052602260045260246000fd5b60006002820490506001821680610d8257607f821691505b602082108103610d9557610d94610d3b565b5b50919050565b7f4e6f7420456e6f75676820546f6b656e73000000000000000000000000000000600082015250565b6000610dd16011836109c7565b9150610ddc82610d9b565b602082019050919050565b60006020820190508181036000830152610e0081610dc4565b9050919050565b7f4e487b7100000000000000000000000000000000000000000000000000000000600052601160045260246000fd5b6000610e4182610a6e565b9150610e4c83610a6e565b9250828203905081811115610e6457610e63610e07565b5b92915050565b6000610e7582610a6e565b9150610e8083610a6e565b9250828201905080821115610e9857610e97610e07565b5b92915050565b60008190508160005260206000209050919050565b60006020601f8301049050919050565b600082821b905092915050565b600060088302610f007fffffffffffffffffffffffffffffffffffffffffffffffffffffffffffffffff82610ec3565b610f0a8683610ec3565b95508019841693508086168417925050509392505050565b6000819050919050565b6000610f47610f42610f3d84610a6e565b610f22565b610a6e565b9050919050565b6000819050919050565b610f6183610f2c565b610f75610f6d82610f4e565b848454610ed0565b825550505050565b600090565b610f8a610f7d565b610f95818484610f58565b505050565b5b81811015610fb957610fae600082610f82565b600181019050610f9b565b5050565b601f821115610ffe57610fcf81610e9e565b610fd884610eb3565b81016020851015610fe7578190505b610ffb610ff385610eb3565b830182610f9a565b50505b505050565b600082821c905092915050565b600061102160001984600802611003565b1980831691505092915050565b600061103a8383611010565b9150826002028217905092915050565b611053826109bc565b67ffffffffffffffff81111561106c5761106b610b4a565b5b6110768254610d6a565b611081828285610fbd565b600060209050601f8311600181146110b457600084156110a2578287015190505b6110ac858261102e565b865550611114565b601f1984166110c286610e9e565b60005b828110156110ea578489015182556001820191506020850194506020810190506110c5565b868310156111075784890151611103601f891682611010565b8355505b6001600288020188555050505b505050505050565b600060408201905081810360008301526111368185610a13565b90506111456020830184610a78565b9392505050565b600060408201905081810360008301526111668185610a13565b9050818103602083015261117a8184610a13565b90509392505050565b6000604082019050818103600083015261119d8185610a13565b90506111ac6020830184610d11565b939250505056fe53656e64657220746f6b656e4368616c6c656e67654861736820706f736974696f6ea2646970667358221220b57f5bac030aba79ab8f94e4b8250bbdbf06bf252ebe5e115f78ff24f485f89164736f6c634300081100334d7920486172646861742041636365737320546f6b656e204368616c6c656e6765",
  "linkReferences": {},
  "deployedLinkReferences": {}
}